:100000000C9434000C943E000C943E000C943E0082
:100010000C943E000C943E000C943E000C943E0068
:100020000C943E000C943E000C943E000C943E0058
:100030000C943E000C943E000C943E000C943E0048
:100040000C943E000C943E000C943E000C943E0038
:100050000C943E000C943E000C943E000C943E0028
:100060000C943E000C943E0011241FBECFEFD8E04C
:10007000DEBFCDBF0E946A000C9484000C94000087
:10008000CF93DF9300D000D0CDB7DEB719821A82AC
:100090001B821C820BC089819A81AB81BC81019635
:1000A000A11DB11D89839A83AB83BC8389819A8109
:1000B000AB81BC8180382AE1920726E0A207B10516
:1000C00054F3000000000F900F900F900F90DF91FD
:1000D000CF910895CF93DF93CDB7DEB784E290E060
:1000E000FC01208184E290E02260FC01208385E213
:1000F00090E0FC01308185E290E022E02327FC01C2
:0C01000020830E944000F3CFF894FFCF52
:00000001FF
