:100000000C9434000C943E000C943E000C943E0082
:100010000C943E000C943E000C943E000C943E0068
:100020000C943E000C943E000C943E000C943E0058
:100030000C943E000C943E000C943E000C943E0048
:100040000C943E000C943E000C943E000C943E0038
:100050000C943E000C943E000C943E000C943E0028
:100060000C943E000C943E0011241FBECFEFD8E04C
:10007000DEBFCDBF0E9440000C94AD020C94000086
:10008000CF93DF93CDB7DEB768970FB6F894DEBF96
:100090000FBECDBF84E290E0FC01208184E290E0BD
:1000A0002260FC0120838AE290E0FC0120818AE248
:1000B00090E02B7EFC01208386E890E023E234EF81
:1000C000FC013183208388E890E029E638E1FC01D7
:1000D0003183208381E890E028E1FC01208380E8DF
:1000E00090E022E0FC01208380E890E0FC01208188
:1000F00080E890E02068FC01208381E890E0FC012A
:10010000208181E890E02460FC01208381E090E080
:100110009A83898389E290E0FC018081882F90E0B6
:10012000847099279C838B8389E290E0FC01808115
:10013000882F90E0807199279E838D8389E290E0DB
:10014000FC018081882F90E08470992782FB8827AA
:1001500080F991E08927882F90E098878F8389E242
:1001600090E0FC018081882F90E080719927829532
:10017000817091E08927882F90E09A8789878B8109
:100180009C81009701F18F8198850097E1F089812A
:100190009A818A309105BCF489819A8101969A836B
:1001A000898349815A812AE638E1429FC001439FF1
:1001B000900D529F900D112401979C0188E890E0CA
:1001C000FC01318320838D819E81009701F1898517
:1001D0009A850097E1F089819A8182309105BCF07F
:1001E00089819A8101979A83898349815A812AE674
:1001F00038E1429FC001439F900D529F900D112402
:1002000001979C0188E890E0FC013183208389E21A
:1002100090E0FC018081882F90E0847099279C8376
:100220008B8389E290E0FC018081882F90E08071CF
:1002300099279E838D8380E090E0A8E4B2E48B87C9
:100240009C87AD87BE8720E030E04AE755E46B85A8
:100250007C858D859E850E941002DC01CB018F87F5
:10026000988BA98BBA8B20E030E040E85FE36F8584
:10027000788989899A890E94900180302CF481E0E4
:1002800090E09C8B8B8B40C020E03FEF4FE757E422
:100290006F85788989899A890E940B02813054F18F
:1002A00020E030E040E251E46B857C858D859E85C1
:1002B0000E941002DC01CB01BC01CD010E9495011E
:1002C000DC01CB019C8B8B8B10C080E991E09E8B75
:1002D0008D8B8D899E890197F1F79E8B8D8B000008
:1002E0008B899C8901979C8B8B8B8B899C89009730
:1002F00061F715C06F85788989899A890E9495016F
:10030000DC01CB019C8B8B8B8B899C89988F8F8B8D
:100310008F89988D0197F1F7988F8F8B00000ECF02
:100320000E94BE0108F481E008950E94EA0188F06D
:100330009F5798F0B92F9927B751B0F0E1F0660FA9
:10034000771F881F991F1AF0BA95C9F714C0B130EA
:1003500091F00E940402B1E008950C940402672F0A
:10036000782F8827B85F39F0B93FCCF38695779519
:100370006795B395D9F786F70C94A502990F0008F5
:10038000550FAA0BE0E8FEEF16161706E807F90767
:10039000C0F012161306E407F50798F0621B730B02
:1003A000840B950B39F40A2661F0232B242B252B83
:1003B00021F408950A2609F4A140A6958FEF811D26
:1003C000811D089557FD9058440F551F59F05F3F08
:1003D00071F04795880F97FB991F61F09F3F79F067
:1003E00087950895121613061406551FF2CF4695E9
:1003F000F1DF08C0161617061806991FF1CF86956B
:100400007105610508940895E894BB27662777274E
:10041000CB0197F908950E94BE0108F48FEF08956B
:100420000E9423020C9494020E94860238F00E94DB
:100430008D0220F0952311F00C947D020C94830220
:1004400011240C9405020E94E20170F3959FC1F300
:10045000950F50E0551F629FF001729FBB27F00D72
:10046000B11D639FAA27F00DB11DAA1F649F6627C7
:10047000B00DA11D661F829F2227B00DA11D621F16
:10048000739FB00DA11D621F839FA00D611D221FD0
:10049000749F3327A00D611D231F849F600D211DB4
:1004A000822F762F6A2F11249F5750409AF0F1F037
:1004B00088234AF0EE0FFF1FBB1F661F771F881FA0
:1004C00091505040A9F79E3F510580F00C947D0259
:1004D0000C9405025F3FE4F3983ED4F3869577953C
:1004E0006795B795F795E7959F5FC1F7FE2B880F46
:1004F000911D9695879597F9089597F99F6780E8DC
:1005000070E060E008959FEF80EC089500240A9465
:100510001616170618060906089500240A941216DE
:100520001306140605060895092E0394000C11F411
:10053000882352F0BB0F40F4BF2B11F460FF04C0BE
:100540006F5F7F4F8F4F9F4F089590958095709567
:0E05500061957F4F8F4F9F4F0895F894FFCF16
:00000001FF
