:100000000C9434000C943E000C943E000C943E0082
:100010000C943E000C943E000C943E000C943E0068
:100020000C943E000C943E000C943E000C943E0058
:100030000C943E000C943E000C943E000C943E0048
:100040000C943E000C943E000C943E000C943E0038
:100050000C943E000C943E000C943E000C943E0028
:100060000C943E000C943E0011241FBECFEFD8E04C
:10007000DEBFCDBF0E9440000C945F000C940000D6
:10008000CF93DF93CDB7DEB784E290E0FC0120810F
:1000900084E290E02260FC01208388E890E021E186
:1000A0003AE7FC013183208380E890E020E4FC0102
:1000B000208381E890E02CE0FC012083FFCFF894BE
:0200C000FFCF70
:00000001FF
